:020000040800F2
:10000000482000200D0E01081DDD00081FDD00083E
:1000100000000000000000000000000000000000E0
:1000200000000000000000000000000023DD0008C8
:10003000000000000000000025DD000827DD0008AA
:10004000D73300084B370008E34D000897710008CC
:10005000B396000847DD00085DDD0008B79600088C
:100060000000000033DD0008EFA00008F3A0000846
:1000700053A5000849790008FFA70008D51F00080C
:10008000B3B40008E91E00085BB6000800000000D9
:100090003DDD0008E7B800081D540008D7CA000875
:1000A000E7CF0008CBDF0008CF0501088153000827
:1000B000DB050108AB77000800000000000000002D
:1000C00080B50120B149887401F0F2FF01BDB0484C
:1000D00000787047AD48807C704710B5AB4C652008
:1000E000205C002804D102F043F80120652160540F
:1000F00010BD10B5A54C6520205C012804D102F08C
:100100003CF800206521605410BD10B50400012C9E
:1001100003D1FFF7E2FF002007E0002C03D1FFF737
:10012000E8FF002001E00020C04310BDF7B586B015
:10013000964C20003C3003906A2600250495270049
:10014000049A3100380002F06BF80323914A04212D
:10015000914802F0CDF82000383006A98CC98CC037
:100160000C390C38208F02900398C07801900398C6
:10017000807800900398437803980278874920009C
:10018000133002F0E9F801206621605468202554FC
:10019000FFF7A3FF02F02CF98149002002F011F8CB
:1001A00001F0ECFC7F4801F0C0FF01F0F5FD01F02B
:1001B0002AFEBC480090002302220221012002F006
:1001C000A3FB01F04FFD09B0F0BDB748007800B2C5
:1001D000704738B504000D0000206860E968097CAC
:1001E000491CEA681174E968097C02290BDBE8689C
:1001F000007C401EE96808746949002001F0E1FFB5
:100200000420C04308E0217A042900D168606449D1
:10021000002001F0D6FF002032BD00B50200C86802
:10022000007C002804D0C868007C401ECB6818748D
:100230000020C860002000BD70B50024200000250B
:10024000ED432E00200040B2062826DA02F0BAFB69
:100250000A2000F0B3FC0A2000F0C0FF06003000C6
:1002600000B2032807D0200040B2032803DA8F48E9
:1002700003F05EF80FE00B2000F0A0FC0B2000F074
:10028000ADFF0600300000B2032804D1884803F017
:100290004FF8002005E0641CD4E7BE4803F048F89E
:1002A000280070BD1CB501F027FF0020374C01006D
:1002B000A1740100617401003322A15469216054CA
:1002C00078480090002302220221012002F01CFB4A
:1002D0004020205CAA281AD11A2000F075FF0328BC
:1002E00052D01A2000F070FF00284DD0601D03F09E
:1002F00033F86821C943884246DAB84803F018F851
:1003000000211A2000F053FFFFF796FF3CE0402049
:10031000205C5A281AD11D2000F056FF032833D044
:100320001D2000F051FF00282ED0601D03F014F8AE
:100330006821C943884227DAA84802F0F9FF002162
:100340001D2000F034FFFFF777FF1DE04020205C08
:10035000552819D10F2000F037FF032814D00F20A3
:1003600000F032FF00280FD0601D02F0F5FF682179
:10037000C943884208DA994802F0DAFF00210F20C9
:1003800000F015FFFFF758FF13BD000034030020F5
:100390009C030020A0030020241B00207C0D0108EA
:1003A000C1080008A5020008F8B505206946487094
:1003B000082700263400300069460870B94D332004
:1003C000285C012801D100206AE0200080B20228C8
:1003D0001EDA00F0A1FA07003800C0B2072805D1E4
:1003E0003900C9B2B04802F0A3FF11E0641C20003C
:1003F00080B20128E9D1AD4802F09AFF02F0E2FA9A
:1004000001F0EAFB30006821685401F04BFCDCE7A6
:100410003800C0B207280FD03900C9B2BC4802F07A
:1004200087FF3800C0B2082803D0FFF705FF662019
:100430002E540320C04333E001206621685400F0AD
:1004400039F805002800C0B2002806D0B14802F0F3
:100450006FFFEDB2280000B222E0AF4802F068FF63
:1004600000F049F806003000C0B2002806D0AB48C2
:1004700002F05EFFF6B2300000B211E0C44802F0B4
:1004800057FF00F062F805002800C0B2002806D02F
:10049000C04802F04DFFEDB2280000B200E000209D
:1004A000F2BD0000B80B00006703002074010108D2
:1004B000080A010870B500240526132000F07EFB11
:1004C000132000F08BFE05002800C0B2032802D0E4
:1004D0000320C0430EE0142000F070FB142000F055
:1004E0007DFE01000800C0B2032802D00320C043F3
:1004F00000E0002070BDF8B5002427000525152078
:1005000000F05CFB152000F069FE06003000C0B270
:10051000032802D00320C04316E02000C0B2052803
:1005200010DA02F04FFA162000F048FB162000F017
:1005300055FE06003000C0B2032801D1002003E0C0
:10054000641CEAE70320C043F2BD80B55548002192
:10055000332281544021405C552808D05A280CD0C1
:100560006A280DD07A280ED0AA2803D00EE000F019
:1005700013F80DE000F09CF80AE000F06FF807E0D7
:100580000320C04304E00320C04301E00320C04334
:1005900002BD00009C07010838B50525092000F0C0
:1005A0000DFB092000F01AFE04002000C0B2032851
:1005B00005D0794802F0BCFE0320C0430DE000F0F6
:1005C0000FF801000800C0B2002802D00320C04389
:1005D00003E00120C34A1070002032BDECF900088E
:1005E000F8B584B00025684685812E002D4C270083
:1005F0003C37FFF76CFD012801D100202CE0208F53
:100600000290F8780190B87800907B783A78B649F3
:100610002000133001F0A0FE2800C0B2032814DA35
:1006200002F0D0F9082000F0C9FA082000F0D6FD49
:1006300069468881039800B2032804D1012068210B
:100640006054002008E06D1CE6E7039909B2B14848
:1006500002F06EFE0320C04305B0F0BD70B500246B
:10066000200008250F4E21006722B1542000C0B29F
:10067000142813DA02F0A6F900F02DFB050028007B
:10068000C0B2042804D1012033217054002007E0B7
:10069000FA20800001F0DBFE641CE7E70320C04382
:1006A00070BD00003403002018FA0008B8070108E4
:1006B00070B50525172000F081FA172000F08EFD97
:1006C00004002000C0B2032805D0B74802F030FE75
:1006D0000320C0431BE0182000F070FA182000F03F
:1006E0007DFD0500192000F069FA192000F076FD63
:1006F00006003000C0B2032805D0B64802F018FE4C
:100700000320C04303E0012076490870002070BD3B
:100710005CFE0008D4070108F00701080C08010876
:10072000F4B506000C000027B06869460988401837
:10073000FF21F631884202D30520C04327E0FFF7AE
:1007400044FD012806D168460188200000F048FBDE
:10075000050018E0FFF728FE0500280000B2002879
:1007600007D0290009B2AE4802F0E2FD280000B22D
:100770000DE0FFF72AFD012805D168460188200019
:1007800000F02EFB0500FFF79BFC280000B2F2BD35
:1007900024050108200A01082808010810B50300F3
:1007A00098681400A4B20019FA246400A04202D38D
:1007B0000520C04300E0002010BDF7B582B01C004A
:1007C0000025ED4368460580049800281DD00128C7
:1007D00017D0022812D004282AD005282CD00628A9
:1007E0002FD0072842D0082855D0092858D00A28E9
:1007F0005AD00B285BD00C285CD05EE0C048446324
:100800005BE000F0A2FB206057E00026FFF765FCEC
:1008100000F0EEFB0700002F01D128004EE0082574
:10082000019726002A000199300002F0BFFD44E044
:10083000FFF750FC206040E0FFF74FFCFFF7B4FDEE
:100840003CE0FFF74AFC00F0E7FB694608800098AF
:1008500000B2002801D0280030E01025BA4E270051
:100860002A003100380002F0A1FD26E0FFF735FC38
:1008700000F0F2FB69460880009800B2002801D021
:1008800028001BE01025B14E27002A003100380057
:1008900002F08CFD11E02068FFF737FC00B20DE09C
:1008A000AB480078206008E001F0A8F905E001F00D
:1008B000BDF902E001F0D6F9FFE7002005B0F0BD78
:1008C000F8B504000D002E680094B74F320000996F
:1008D000380002F06BFD2868B4490860012088499F
:1008E0000870F1BD670300209C0B0108F8B5FA24DD
:1008F000640000263500AC4F2A002100380001F0CA
:100900008FFC7F480670F1BDA7487047A748006874
:10091000704700004405010838B50824FFF7E6FFDA
:1009200001F06CF901F09EF9002528007449487423
:10093000280080B2282816DA9D4802F0F9FC02F05F
:1009400041F800F007F904002000C0B2072803D0E6
:100950002000C0B2082800D105E0FA20400001F0D4
:1009600076FD6D1CE4E72000C0B232BD70B50525F0
:100970002E000C2000F022F90C2000F02FFC0400C7
:100980002000C0B203280ED15D488178012904D12E
:100990004574884802F0CCFC05E00D2000F00EF90B
:1009A0000D2000F01BFC70BD4408010838B505247B
:1009B0002500052000F002F9052000F00FFC0100E1
:1009C000C9B2032902D14E494C7402E004214C4AB9
:1009D000517431BDB00B010838B50524002528003D
:1009E0002800C0B2042814DA01F0ECFF01F006F987
:1009F000002000F0E3F8002000F0F0FB04002000ED
:100A0000C0B2032803D101203D49487407E06D1CA2
:100A1000E6E708203A494874BC4802F089FC31BD39
:100A200080F4000838B50524002528002800C0B24D
:100A3000032812DA01F0C6FF012000F0BFF8012000
:100A400000F0CCFB04002000C0B2032803D1022038
:100A50002B49487407E06D1CE8E7022028494874D8
:100A6000BF4802F065FC31BD38B5052400252800DB
:100A70002800C0B2042815DA01F0A4FF0E2000F00F
:100A80009DF80E2000F0AAFB04002000C0B203284D
:100A900006D103201A494874BC4802F049FC07E01B
:100AA0006D1CE5E7082016494874B94802F040FC7F
:100AB00031BD38B50525032000F080F8032000F093
:100AC0008DFB04002000C0B2032817D10C48C17868
:100AD000012905D106214174BA4802F029FC0DE034
:100AE0000A2000F06BF80A2000F078FB05002800CF
:100AF000C0B2032802D0B44802F01AFC31BD000095
:100B00003403002038B50525042000F057F80420F0
:100B100000F064FB04002000C0B2032806D00620C9
:100B200025494874A94802F003FC0BE022480179EA
:100B3000012905D107214174A54802F0F9FB01E024
:100B40000621417431BD0000790300208903002093
:100B50009A03002010B5184C607C00280BD00228A6
:100B60000FD00BD3042812D00ED3062815D011D3E2
:100B7000072815D015E0FFF72FFF12E0FFF752FF0F
:100B80000FE0FFF771FF0CE0FFF7F0FE09E0FFF761
:100B90000DFF06E0FFF78DFF03E0FFF7B3FF00E076
:100BA000FFE7607C10BD0000D80E00201C1C002058
:100BB000380A010830ED000834030020F8B590B081
:100BC00004006846402101F03BFB402500266F46AB
:100BD00032002900380001F023FB2000C0B20728B2
:100BE00006D0082818D019282AD01C283CD04FE05D
:100BF000784B79482100C9B20C2251434018426811
:100C00007649684601F0A8FB684602F0DDFB01006A
:100C1000684601F0C5FA54E06E4B6F482100C9B236
:100C20000C225143401842686C49684601F094FB1D
:100C3000684602F0C9FB0100684601F0B1FA40E0E5
:100C4000644B65482100C9B20C22514340184268E8
:100C50006249684601F080FB684602F0B5FB01007E
:100C6000684601F09DFA2CE05A4B5B482100C9B25E
:100C70000C225143401842685849684601F06CFB09
:100C8000684602F0A1FB0100684601F089FA18E00D
:100C9000514D2000C0B20C2148432818406802F092
:100CA00093FB02002000C0B20C2148432818416881
:100CB000684602F091FB02F087FB0100684601F0F4
:100CC0006FFA012044492200D2B20C235A438918FA
:100CD000087211B0F0BD10B5C44C6720205C00282C
:100CE00005D0022809D005D3032809D00AE000F076
:100CF0000FF807E000F020F804E000F033F801E01E
:100D000000F048F86720205C00B210BD60080108C0
:100D100010B505241720FFF751FF172000F05EFAE9
:100D20000100C9B2032903D10121C94A117002E0AF
:100D30000021C74A117010BD10B505241B20FFF714
:100D40003DFF1B2000F04AFA0100C9B2032903D17C
:100D50000221BF4A117002E00121BD4A117010BD8D
:100D6000500A010810B505241C20FFF727FF1C209E
:100D700000F034FA0100C9B2032903D10321B44AB7
:100D8000117002E00221B24A117010BD1CE6000889
:100D900058E6000810B50524AE4802F0C9FA1E2036
:100DA000FFF70CFF1E2000F019FA0100C9B2032959
:100DB00003D10421A64A117002E00321A44A117054
:100DC00010BD0000B0F400089801010880E9000897
:100DD000E0F4000847030020C00100206010010873
:100DE000F1B586B00F00814E30003C300590802078
:100DF0008000049000250395A84C0094039A049960
:100E0000009801F00DFA00988020400002900195B2
:100E1000A34D0095019A0299009801F001FA0098FB
:100E20000698002805D19F4802F082FA0020C043AE
:100E300089E0380080B2FF21891C884207DB390035
:100E400089B2994802F074FA0020C0437BE0332055
:100E5000305C002805D1954802F06AFA0020C043B2
:100E600071E001F0AFFD3A00D2B22900069802F01D
:100E700013FB4020305C552849D05A2826D06A28D8
:100E80005ED07A285DD0AA285CD13A0092B2884917
:100E9000200001F061FA200002F096FA0100200023
:100EA00001F07EF9FA20C00001F0D1FA2A003900E1
:100EB00089B2804802F03CFA01211A2000F077F94B
:100EC000390089B2069801F06BF93BE03A0092B222
:100ED0007949200001F040FA200002F075FA010083
:100EE000200001F05DF9FA20C00001F0B0FA2A00FC
:100EF000390089B2B34802F01BFA01211D2000F02D
:100F000056F9390089B2069801F04AF91AE028002A
:100F100002F05AFA2B004208AF49200001F01CFAF7
:100F200001210F2000F043F9200002F04DFA0100EA
:100F3000200001F035F92100B94802F0F9F901E08B
:100F400000E0FFE7002007B0F0BD70B505260520E2
:100F5000FFF734FE052000F041F90500B14C2000F8
:100F600002F0FAF90100B04802F0E2F9200002F0C4
:100F7000F3F970BD70B504000025ED432E00AB49B8
:100F8000200002F0C9FB002804D00421052000F055
:100F90000EF929E0A6A1200002F0BEFB002819D01E
:100FA0000523A4A2A449200002F0F3FA0600AE42F1
:100FB00004D10421052000F0FAF815E099497120C8
:100FC00002227243801A02F0C1FB0321052000F0C7
:100FD000EEF809E0B649200002F09EFB002803D09D
:100FE0000421052000F0E3F870BD00003403002068
:100FF00038B505240620FFF7E1FD062000F0EEF8E5
:1010000005002800C0B2032804D0AA4802F090F9D5
:10101000002000E0C64832BD38B50524A64802F0DD
:10102000D3F9002801D0002011E01020FFF7C6FD01
:10103000102000F0D3F805002800C0B2032805D026
:10104000BC4802F075F90320C04300E0002032BD27
:101050009B030020C40B010870B500252E00052459
:10106000B54802F0B1F9002801D0002014E02800B2
:10107000C0B202280EDA0E20FFF7A0FD0E2000F00D
:10108000ADF804002000C0B2032801D1002003E025
:101090006D1CECE70320C04370BD0000D80C00209D
:1010A000B4150020BC01010878E20008E001010845
:1010B000D80B01087C080108EC0B0108F8B5060004
:1010C0000025ED4300955AA1300002F025FB0028D1
:1010D00062D0B3A70D233A00B249300002F059FAAA
:1010E0000400AC4204D10421062000F060F85DE069
:1010F00008233A00AC49300002F04BFA0090009807
:10110000A84204D10421062000F051F84EE0A74C7B
:1011100021000D31009802F019FB04233A00A44984
:10112000300002F036FA00900098A84204D1042161
:10113000062000F03CF839E00098607204233A0081
:101140009C49300002F025FA00900098A84204D192
:101150000421062000F02BF828E00098A072042358
:101160003A009549300002F014FA00900098A84225
:1011700004D10421062000F01AF817E00098E0726C
:10118000000A20730321062000F011F828A1300086
:1011900002F0C2FA060009E04549300002F0BCFA4C
:1011A000002803D00421062000F001F8F1BD10B49E
:1011B000C24A0300DBB20C246343D218117210BC84
:1011C0007047000098080108BC49C0B20C22504387
:1011D0000818007A704700008C0D010870B50400F3
:1011E0000025B74E280080B2B0420ADA2000C0B213
:1011F000FFF7EAFF012804D16D1C042001F027F954
:10120000EFE7280080B2B04204DB02212000C0B228
:10121000FFF7CDFF2000C0B2FFF7D6FF70BD000082
:10122000000C010839030020C40E0108D00E01088B
:101230004F4B00002C0000006810010838B5040076
:10124000C3A52900200002F067FA002825D09D4997
:10125000200002F061FA002807D00120534988706D
:1012600003210C20FFF7A3FF11E0BA49200002F090
:1012700053FA002807D000204C49887003210C2025
:10128000FFF795FF03E004210C20FFF790FF2900F2
:10129000200002F041FA040009E00549200002F0B4
:1012A0003BFA002803D004210C20FFF780FF31BD5A
:1012B00070100108680A01087903002038B504009D
:1012C000A3A52900200002F027FA002825D0AF4965
:1012D000200002F021FA002807D001203349C8700D
:1012E00003210320FFF763FF11E0A949200002F06A
:1012F00013FA002807D000202C49C87003210320CE
:10130000FFF755FF03E004210320FFF750FF2900FA
:10131000200002F001FA040009E0CC49200002F0AC
:10132000FBF9002803D004210320FFF740FF31BD63
:101330003D030020640501088903002038B504003E
:1013400083A52900200002F0E7F900281AD091496E
:10135000200002F0E1F9002807D0012013490871AC
:1013600003210420FFF723FF06E000200F49087146
:1013700003210420FFF71BFF2900200002F0CCF915
:1013800004000CE0B149200002F0C6F9002806D0A4
:1013900000200649087104210420FFF708FF31BD31
:1013A0000D0A00009C0D0108DC0E0108340300202A
:1013B000781001088010010888100108F1B586B086
:1013C0000024200069460870270001940699A0486F
:1013D00001F0AEFF5EA1069802F09EF9002862D0EF
:1013E0009C49069802F098F90700002F02D19A480C
:1013F00001F09EFF2600032E12DAC3A1380002F08E
:101400008BF90500002D04D13100944801F090FFC4
:1014100052E06F1C3900BD4801F08AFF761CEAE7F4
:10142000002F03D1BA4801F083FF45E03900B748E7
:1014300001F07EFFB4A1380002F06EF9019001982E
:10144000002803D1B34801F073FF35E0019839005B
:10145000401A69460870802004900394C84E3400F6
:10146000039A0499200000F0DBFE68460578029795
:1014700034002A000299200001F098FFD84C6846F9
:101480000078022102F082F9020092B221003000BD
:1014900002F045F8200002F0F0F92DA1069802F0C4
:1014A0003BF9069008E06949069802F035F90028F2
:1014B00002D0CC4801F03CFF07B0F0BDC0010020D5
:1014C000E9030000E80E0108F1B586B0002425000C
:1014D0000020C043019002A8102100F0B1FE2000BE
:1014E000C0B21F2831DAC0482100C9B20C225143D2
:1014F0004018007A012826D12000C0B20E281CD145
:1015000010200090B9A3BA4A02A9069802F099F8EF
:10151000019001980F2808D00199B64801F008FF02
:1015200004210E20FFF743FE0FE0102502AED14F3D
:101530002A003100380001F039FF03212000C0B239
:10154000FFF735FE01E0641CC9E707B0F0BD0000FD
:101550004F4B0000F40E010838B5040000252800A8
:101560002800C0B21F2810DA9F482900C9B20C22F7
:1015700051434018007A012805D104212800C0B247
:10158000FFF715FE01E06D1CEAE731BD000F010811
:101590000C0F0108180F0108F1B586B00026F643BC
:1015A00001968020059000240494754D2F00049A24
:1015B0000599380000F034FE402003900094884CD8
:1015C0002700009A0399380000F02AFE0296FEF7E1
:1015D00077FD0699B44801F0ABFEBE49069802F0CB
:1015E0009BF80690069800282ED047A706233A00BD
:1015F000B849069801F0CDFF01900198B04204D19E
:101600000199C14801F094FE1EE08020009077A36C
:101610003A002900069802F014F80290019802217D
:1016200048430299884205D0029A0199C74801F0BF
:101630007FFE09E00198020092B22100280001F02B
:101640006EFF200002F019F907B0F0BD701001081C
:10165000AC0D0108470300200402010884050108BD
:10166000F1B588B00025ED43009500260196802055
:1016700005900496424C2700049A0599380000F022
:10168000CFFD402003900296554E029A03993000F8
:1016900000F0C6FD0695FEF713FD0899AC4801F071
:1016A00047FEAC49089802F037F80700002F29D010
:1016B00015A60C233200A849380001F06AFF0090FB
:1016C0000098A84203D1A54801F032FE1AE031008B
:1016D00038000C3002F020F801900198002804D165
:1016E000069A0099994801F023FE0098029001980B
:1016F000451C2600029A2900300001F057FE200008
:1017000002F0BBF809B0F0BD2C000000800A01080F
:1017100064ED000810F50008F1B588B00026F64326
:10172000009600240194802005900494144D2F000D
:10173000049A0599380000F073FD4020039002944C
:10174000274C2700029A0399380000F069FD06969D
:10175000FEF7B6FC8249089801F0DEFF0700002F73
:101760003CD00C237FA28049380001F012FF00908A
:101770000098B04206D17D4801F0DAFD2EE000BFAE
:101780005817002077A138000C3001F0C5FF0190F8
:101790000198002804D1069A0099754801F0C8FD07
:1017A000009803900198401C02902600039A029929
:1017B000300001F0FBFD00980200D2B229002000A9
:1017C00001F06AFE2900624801F0B2FD200002F03B
:1017D00054F868A1380001F09FFF070009B0F0BD80
:1017E0005819002028020108C00100200D0A00003D
:1017F00090100108B4080108F0B585B00500002676
:10180000F64301A8102100F01BFDC74C2100280061
:1018100001F082FF002826D010200090C3A32200F0
:1018200001A9280001F00DFF06000F2E08D031009D
:10183000514801F07DFD04211020FFF7B8FC16E0AF
:101840001020009001AC4D4F009A2100380001F0AB
:10185000ADFD03211020FFF7AAFC46A1280001F0EE
:101860005BFF050003E004210420FFF7A0FC05B0A6
:10187000F0BD00008903002038B504000025ED43C9
:101880003F49200001F048FF002804D00321162022
:10189000FFF78DFC03E004211620FFF788FC35A13B
:1018A000200001F039FF31BD240F010838B50400D4
:1018B0000025ED43AF49200001F02EFF002803D0A2
:1018C00003211B20FFF773FC2AA1200001F024FF55
:1018D00031BD00009810010838B504000025ED4323
:1018E000A549200001F018FF002804D003211C2086
:1018F000FFF75DFC03E004211C20FFF758FC1DA14D
:10190000200001F009FF31BD84FE000870B504001D
:101910000026F6430025B849200001F0FDFE00280E
:101920000FD0C049200001F0F7FE002804D00321A9
:101930001E20FFF73CFC08E004211E20FFF737FCC7
:1019400003E004211E20FFF732FC70BD40F50008C3
:10195000AC0D0108300F0108BC0D010870F500083E
:101960003C0F01082C000000CC0D0108A0F5000878
:1019700098ED00084F4B00004C020108790300204D
:10198000480F0108F0B585B000270497A64E3078BF
:10199000002800D1ECE0FA20400003900297B04C00
:1019A0002500029A0399280000F03AFCFEF7AEFFEA
:1019B0000500FEF7A9FF019500902500019A009906
:1019C000280001F0F3FCFEF791FF58A1200001F080
:1019D000A3FE0500002D00D1CAE0B049280001F0A7
:1019E0009BFE002803D02800FFF728FCBAE0AC4992
:1019F000280001F091FE002803D02800FFF75EFCCC
:101A0000B0E0B149280001F087FE002803D028008B
:101A1000FFF7B0FAA6E0AD49280001F07DFE0028EE
:101A200003D02800FFF78AFC9CE031001331280026
:101A300001F072FE002803D02800FFF7BFFC91E000
:101A4000A349280001F068FE002803D02800FFF712
:101A500035FB87E09F49280001F05EFE002803D097
:101A60002800FFF799FD7DE09B49280001F054FE16
:101A7000002803D02800FFF7F3FD73E09749280002
:101A800001F04AFE002803D02800FFF745FE69E078
:101A90002549280001F040FE002803D02800FFF768
:101AA000ABFE5FE08E49280001F036FE002803D02F
:101AB0002800FFF7E1FE55E02E49280001F02CFE3A
:101AC000002803D02800FFF7F1FE4BE085492800ED
:101AD00001F022FE002803D02800FFF7FDFE41E0C0
:101AE0004549280001F018FE002803D02800FFF720
:101AF0000DFF37E07C49280001F00EFE002803D0DE
:101B00003800692170542DE078A42100280001F0EC
:101B100003FE00280CD02800FFF7D6FC2100280087
:101B200001F0FAFD05001DE0A01001080D0A0000FB
:101B30006F49280001F0F0FD002804D003210020A7
:101B4000FFF735FB0EE06B4C2100280001F0E4FDAF
:101B5000002807D02800FFF7FFFC2100280001F033
:101B6000DBFD050064A1280001F0D6FD050031E78A
:101B700005B0F0BD540F0108DC0D010878B585B043
:101B800008200090012501950024029403945B4EE7
:101B90006946300002F07EFC01220821300002F08C
:101BA00030FE802040000090019502940394544E32
:101BB0006946300002F06EFC00F020F880208000C2
:101BC00000900195029403946946300002F062FC93
:101BD00000F068F806B070BD10B5484C002208212E
:101BE000200002F00EFE474800F031FC01220821DF
:101BF000200002F006FE10BD600F010838B5404D10
:101C00008024640001222100280002F0FAFD9620C1
:101C1000C00000F01CFC00222100280002F0F1FDB1
:101C200031BD00006C0F01083403002038B50025D9
:101C3000280005242800C0B203280CDA1220FEF781
:101C4000BDFF1220FFF7CAFA04002000C0B203282B
:101C500004D06D1CEEE72C4801F06AFB31BD00009A
:101C6000CC10002038B50025280005242800C0B27B
:101C700003280EDA00F0A6FE1120FEF79FFF1120C8
:101C8000FFF7ACFA04002000C0B2032804D06D1C9A
:101C9000ECE71E4801F04CFB31BD0000A810010824
:101CA000780F010838B5164D8024A40001222100C8
:101CB000280002F0A6FD164800F0C9FB0022210012
:101CC000280002F09EFD31BDB0100108840F01080C
:101CD000900F0108981001089C0F0108A80F010837
:101CE000B8100108B40F0108C00F01084F4B0000E5
:101CF000CC0F0108701001080D0A3A0000040050D2
:101D000000080050B80B0000980A0108B00A01084A
:101D1000C409000000B5BFF34F8F6F487C490860CD
:101D2000BFF34F8F00BFFDE780B586B08020C005B0
:101D30006A4908606A4869494860002067498860C4
:101D400068486649C860002064490861634802F039
:101D50007DFD002803D04C216E4800F084FB8020DC
:101D60004001029002A95D4802F03EFE002803D027
:101D70005221684800F077FB00200090002001907D
:101D80006946564802F04EFF002803D059216148A9
:101D900000F069FB07B000BD80B586B08748884970
:101DA00008608848864948600020854988608648E0
:101DB0008349C860002082490861814802F046FDDD
:101DC000002803D08921534800F04DFB80204001BA
:101DD000029002A97A4802F007FE002803D08F2162
:101DE0004C4800F040FB0020009000200190694624
:101DF000734802F017FF002803D09621454800F0F1
:101E000032FB07B000BD80B586B0704870490860ED
:101E100041486F49486000206D498860FF202C30A0
:101E20006B49C86000206A490861694802F00EFDEC
:101E3000002803D0A821864800F015FB802040012F
:101E4000029002A9624802F0CFFD002803D0AE2123
:101E50007F4800F008FB00200090002001906946B8
:101E60005B4802F0DFFE002803D0B521784800F07F
:101E7000FAFA07B000BDE0B57648006810210143CA
:101E8000744801607448884908602348864948605E
:101E900000208549886009208349C860824802F093
:101EA000D5FC002803D0C6211A4800F0DCFA002037
:101EB00000900020019069467B4802F0B3FE0028A4
:101EC00003D0CD21134800F0CEFA112002F050FFCC
:101ED000754802F0D7FC07BD0400FA0598190020E8
:101EE0007F3E00005FEA000080B56F48006800692F
:101EF000C0070BD56C480068C068C00706D5012034
:101F0000C04369490968086103F004F901BD000094
:101F10000CED00E080F700081F03000010B504007E
:101F200020688021C90588420ED14A4800680121F5
:101F3000014348480160002200210F2002F00EFFFB
:101F40000F2002F015FF37E020681C4988420ED1AF
:101F50007F480068042101437D480160002203217D
:101F6000142002F0FBFE142002F002FF24E020689F
:101F7000164988420ED176480068202101437448F2
:101F8000016000220021162002F0E8FE162002F077
:101F9000EFFE11E02068304988420DD12D480068DD
:101FA000102101432B48016000220121112002F081
:101FB000D5FE112002F0DCFE10BD0000000801403B
:101FC000D01900203F1F0000A7610000001401404D
:101FD000081A002080B55F4800680069C0071CD55A
:101FE0005C480068C068C00717D50120C043594944
:101FF0000968086158480078012805D10020564931
:10200000087000F00BF808E053480078022804D16B
:10201000524801F08DF9FFF77DFE01BD00B54D4836
:102020000068C068012188434A490968C860494876
:102030000068006A1D490140002907D14548006831
:1020400000680121884343490968086000BD000019
:1020500080F70008381002400010004080B53D486D
:102060000068C068012188433A490968C860394856
:102070000068006A0D490140002907D13548006811
:10208000006801218843334909680860002031490C
:10209000096848622F4802F0F5FB0120C0432D4932
:1020A0000968086101BD0000401A002011110000FC
:1020B00080B52B480068C068012188432849096819
:1020C000C86027480068006A26490140002907D1F6
:1020D0002348006800680121884321490968086095
:1020E0000120C0431E490968086100201E4908609C
:1020F0001B4802F0C7FB01BD00B519480068C06865
:102100000121884316490968C86015480068006ABB
:1021100014490140002907D11148006800680121D5
:1021200088430F490968086000BD1049086070477E
:1021300010B5040020680A490968884206D10B4896
:102140000068002802D009480068804710BD0000E0
:102150003410024098190020421C002038EF00087B
:10216000D01900201111000024080140241C002077
:1021700080B503F013F8002002BD80B52048006848
:102180000068012188431E49096808601D480068ED
:102190001D4901401B480160194803F0E3F901BDE6
:1021A00038B504000D00002C01D1012008E0174BC8
:1021B0002A0092B221001648006803F0FBF90020C3
:1021C00032BD38B504000D002800002804D11148A4
:1021D00001F0AEF8012012E02000C0B2002802D0C9
:1021E000012804D005E00C480560002007E000202D
:1021F00005E02100C9B2094801F09AF8032032BD78
:102200004818002034100240FFBFFFFF10270000D5
:10221000B0010020500101082C1C0020FCEC00083B
:102220001206130A1A43130C1A4300BF094205D0C1
:10223000830707D00270401C491EF9D17047000087
:102240000022FFE71300103906D330B41400150044
:1022500010393CC0FCD230BC490700D30CC000D5BB
:1022600004C0890002D30280801C002900D50270BE
:102270007047F1B401684218416848081318009883
:102280008068C9071ED5494640181BE01778521CC4
:102290000770401C761EF9D1002C13D01678521C02
:1022A00089080D40032D01D11578521C290271189F
:1022B0004D424119A41C05D00D78491C0570401CE5
:1022C000641EF9D19A420FD01178521C03250326BF
:1022D0000E4002D11678F61C521C0C090F2CD9D1D5
:1022E00014780F34521CD5E700980C30F2BC7047BC
:1022F000F8B504000D0017001E002572E7600020ED
:102300002074668212480078012805D10020104907
:102310000870104803F063FE21000E4803F062FECF
:10232000F1BD70B504000B4D280003F063FE0600FC
:10233000002E09D0307A2100C9B2884204D028008A
:1023400003F066FE0600F3E7300070BD00000000F9
:1023500005050020981B00200CB418B583B00400BC
:102360000A0006A8029001940020009002AB01A987
:10237000084878441E3003F059FE0021019A11707C
:10238000002801D40198001B04B0019910BC03B0CF
:10239000084700BFDB0F000010B586B004212348BA
:1023A00002680A430260026811400091009901210D
:1023B00002680A43026002680A400092009A022200
:1023C00003681343036000680240009200984020B5
:1023D0000190029100200390154C01A9200002F009
:1023E00059F800224021200002F00BFA06B010BD7F
:1023F00080B586B002200D490A6802430A60096868
:1024000001400091009901900A4802900020039039
:1024100001A9094802F03EF800220221052002F03D
:102420009DFC052002F0A4FC07B000BD2C1002406A
:1024300000080050000021100004005000B5010009
:10244000481E002902D000BF00BFF8E700BD10B54C
:1024500004002000441E002804D0FA208000FFF76A
:10246000EDFFF6E710BD00B5FEE7F8B50700002662
:10247000F643B74C01220121200004F0D0FD0500F5
:10248000280000B2002807D0290009B2B14800F0A6
:102490004FFF280000B234E00021200004F048FE85
:1024A0000600300000B2002807D0310009B2AA4867
:1024B00000F03EFF300000B223E01C223900200073
:1024C00004F0ECFD0500280000B2002807D0290028
:1024D00009B2A24800F02CFF280000B211E0200051
:1024E00004F0C7FD0400200000B2002807D021003E
:1024F00009B2B74800F01CFF200000B201E0200044
:1025000000B2F2BD0FB470B50025ED43904E02222B
:102510000121300004F083FD0400200000B20028F7
:1025200007D0210009B2AB4800F002FF200000B242
:1025300033E00021300004F0FBFD200000B2002851
:1025400007D0210009B2A44800F0F2FE200000B23A
:1025500023E0072204A9300004F0C5FD050028008F
:1025600000B2002807D0290009B29C4800F0E0FE24
:10257000280000B211E0300004F07BFD04002000D0
:1025800000B2002807D0210009B2954800F0D0FE23
:10259000200000B201E0200000B2039970BC05B039
:1025A0000847F8B507000026F6438E4C01220021AB
:1025B000200004F034FD0500280000B2002807D0F8
:1025C000290009B2884800F0B3FE280000B234E0C8
:1025D0000021200004F0ACFD0600300000B200280D
:1025E00007D0310009B2814800F0A2FE300000B2ED
:1025F00023E058223900200004F050FD0500280097
:1026000000B2002807D0290009B2BC4800F090FEB3
:10261000280000B211E0200004F02BFD040020008F
:1026200000B2002807D0210009B2B54800F080FEB2
:10263000200000B201E0200000B2F2BD0FB470B57E
:102640000025ED43674E02220021300004F0E7FC34
:102650000400200000B2002807D0210009B2A948D8
:1026600000F066FE200000B233E00021300004F0EC
:102670005FFD200000B2002807D0210009B2BF484A
:1026800000F056FE200000B223E0162204A930001C
:1026900004F029FD0500280000B2002807D0290019
:1026A00009B2B74800F044FE280000B211E0300043
:1026B00004F0DFFC0400200000B2002807D0210055
:1026C00009B2B04800F034FE200000B201E0200062
:1026D00000B2039970BC05B00847F8B586B0002673
:1026E000F643A94D68690590288A6946C881287E05
:1026F000694608731C242800583004902F002200DB
:102700000499380000F052FE059868616846C08957
:1027100028826846007B2876290084B068461C22FF
:1027200000F02AFE0FBCFFF7EDFE0500280000B206
:10273000002807D0290009B2944800F0F9FD2800CC
:1027400000B201E0280000B207B0F0BD00000000B8
:10275000581B0020DCF7000808F8000834F80008CF
:10276000F8B507000E000020C0436946088000F05D
:1027700029F9874D03220421280004F050FC0400AD
:10278000200000B200280DD0200000B20421C9436F
:10279000884207D0210009B27E4800F0C9FD200020
:1027A00000B214E0320092B23900280004F09BFC21
:1027B0000500280000B2002807D0290009B2764899
:1027C00000F0B6FD280000B201E0280000B2F2BD22
:1027D000D0EF000860F800088CF8000800F000084E
:1027E00030F00008681B002060F0000890F000083E
:1027F000F3B581B00025ED4300F0E4F8644E032208
:102800000421300004F00BFC0400200000B200287A
:102810000BD0200000B20421C943884205D021001A
:1028200009B25E4800F084FD5FE00022052130001F
:1028300004F095FC0400200000B2002805D021001F
:1028400009B2574800F074FD4FE05648009002234B
:1028500002220221012000F057F8684602890199FE
:10286000300004F040FC0400200000B2002805D035
:10287000210009B24C4800F05BFD36E000F0A2F800
:10288000FA20C000FFF7E3FD00220321300004F02E
:1028900066FC0400200000B2002805D0210009B227
:1028A000424800F045FD20E0374D2A0084320121E6
:1028B000300004F054FC0700380000B2002804D0B7
:1028C000390009B23A4800F033FD2A00783200217D
:1028D000300004F044FC0400200000B2002804D0C2
:1028E000210009B2334800F023FD00220B21300003
:1028F00004F035FC200000B2FEBD0000C0F000086E
:10290000F0F0000820F10008FFB583B00C9F00260E
:10291000F643294C03220C21200004F080FB68467A
:102920006946097B01706946097C81700197694697
:10293000097EC1706946097D41706A460021200008
:1029400004F00DFC0500280040B2002804D0290046
:1029500049B21A4800F0ECFC200004F08AFB0400A5
:10296000200040B2002804D0210049B2144800F0F1
:10297000DFFC64B2200000B207B0F0BD50F10008E7
:1029800080F10008B0F10008B416002058EA0008F1
:10299000881B00208CEA0008C0EA0008E0F100086B
:1029A000F8E70008B80B000010F2000830E8000853
:1029B00040F2000870F20008781B00206403010850
:1029C000C4FF00085F48BE490860704710B59C4CC2
:1029D0002068000103D59B4800F0AAFC09E02068AC
:1029E000800003D5984800F0A3FC02E0B54800F051
:1029F0009FFC2068802109040143216010BD00B5BF
:102A0000B14902000B78D2B29A4200D2087000BDE0
:102A1000F8B592B00020C04369460880A42700257D
:102A20008A4C26002A0039003000FFF7F9FB20000D
:102A3000FFF71BFD0600300000B2002807D0310070
:102A400009B2834800F074FC300000B24BE0200073
:102A50001C30FFF7A6FD0500280000B2002807D0B3
:102A6000290009B2994800F063FC280000B23AE05E
:102A70001B208C216054B248006980479E2160541D
:102A80006088002802D1B420C0006080A08800289F
:102A900001D10520A0802088002801D101202080BC
:102AA0003020205C002802D1412030216054207E5B
:102AB000002801D15520207664208D21605421000A
:102AC00084B068461C2200F057FC0FBCFFF71AFDCB
:102AD00021001C3184B06846582200F04DFC0FBC28
:102AE000FFF7ACFD002013B0F0BD10B4744A784B72
:102AF00013600300DBB2934C23600B009BB2924C3B
:102B00002360104B1360C24B136010BC704738B584
:102B10000024E443032206218C4804F080FA0500D7
:102B2000280000B200280AD0280000B20421C943BE
:102B3000884204D0290009B2B64800F0F9FB280009
:102B400000B232BDAAAA0000FEB50027FF43002450
:102B500001947F4D00202856012806D17D4800F0C1
:102B6000E7FB01F009FC2C7068E0384DAA480068CA
:102B700088216958884261D0984E30686A8803215C
:102B8000514300F006FE002958D1954800F0D0FBD3
:102B900068883C284DDA03220421A04804F03FFA5B
:102BA00069460880009800B200280BD0009800B257
:102BB0000421C943884205D0009909B2984800F021
:102BC000B7FB3BE001AA0921944804F0C8FA0700CA
:102BD000380000B2002805D0390009B2914800F051
:102BE000A7FB2BE00198002821D18F4800F0A0FB23
:102BF0008E48028831688E4800F09AFB8B48008826
:102C0000401C8A490880B4206A880321514300F09F
:102C1000BDFD86490988814206DA864800F088FBB6
:102C200030687D49086009E08048048001E07F4801
:102C3000048001F0A1FB306877490860F7BD00000F
:102C4000501002408404010848070108B41600200F
:102C500094F900087CB50020060069460880384CCD
:102C600002236A46002197486568A84705002800A6
:102C700000B2002803D0944800F05AFB07E09348C4
:102C80006946098801800188914800F051FB0223C0
:102C90006A4601218F486468A0470400200000B202
:102CA000002803D08C4800F043FB07E08B486946BE
:102CB000098801800188CC4800F03AFB73BD000010
:102CC00000300040A40401084117002090F30008E0
:102CD000555500007CB50020060069460870184C68
:102CE00001236A4602217E486568A847050028003E
:102CF00000B2002803D07B4800F01AFB07E07A48B6
:102D00006946097801700178784800F011FB0123C9
:102D10006A46032176486468A0470400200000B298
:102D2000002803D0734800F003FB07E072486946AF
:102D3000097801700178D24800F0FAFA73BD0000FA
:102D40002C0701080430004008300040381B0020E8
:102D50000405002078000108FEB5002402940194C7
:102D600000942700FFF7D3FEA04D01AA0021280000
:102D700004F0F5F90600002E20D16A46042128004F
:102D800004F0EDF90600002E06D1009909B2019871
:102D900080B204F060FA07003800C0B2FFF72FFEDF
:102DA0003800C0B2052809D191480188002901D115
:102DB0000121FFE7018801220A430280FFF74AFF51
:102DC000FFF788FF280004F054F9002E02D089484C
:102DD00000F0AEFAAF4800F0ABFAF7BD3C170020A8
:102DE0006407010838B5AC490D008835AB4C206844
:102DF0002A6890420BD028688A880321514300F04A
:102E0000C8FC002903D1FFF7A7FF2868206031BD67
:102E1000CCCC0000C0F90008141C0020881B002046
:102E2000C0F30008C4EB0008F0F300083E1C0020CB
:102E3000FCE20008F8EB000810B5304C0220E16815
:102E40008847002808D000210220A26890476848DF
:102E5000018808220A4302800320E168884700288D
:102E600003D000210320A2689047614C20781821EC
:102E70000140002924D0C820FFF7E9FAFFF72AFF14
:102E8000874800F055FA01F077FAFFF79BFD854877
:102E900004F032FA022000F0E7FC032809D082484F
:102EA00000F046FA01F068FAFFF78CFD7F4804F065
:102EB00023FACF48218801402180218808402080C2
:102EC00010BD0000B41B00201CFD00084C170020A2
:102ED0009C000108C01B002044FD00084E17002084
:102EE000CC1B00206CFD000850170020E4000108F6
:102EF000D81B002094FD0008511700202C07010862
:102F0000F8B5654C25008035694F28883880022641
:102F10002888304210D120009830218902889142BF
:102F200003D30088E188884217D2624800F000FA93
:102F3000288806432E8010E02000983001882289DE
:102F400091420AD2E1880088814206D25A4800F0B4
:102F5000EFF92888A74901402980042628883042B3
:102F600010D120009A30A1890288914203D30088B1
:102F70006189884217D2A04800F0DAF92888064310
:102F80002E8010E020009A300188A28991420AD256
:102F900061890088814206D2984800F0C9F92888E2
:102FA0009749014029803888298888421AD0954855
:102FB00000F0BEF901F0E0F9FFF704FD394804F034
:102FC0009BF9022000F050FC032809D08E4800F045
:102FD000AFF901F0D1F9FFF7F5FC344804F08CF9B2
:102FE00028883880F1BD0000C0000108381B00208F
:102FF00034170020BCFD0008F8B50024E443B14DAF
:1030000003220421280004F00AF80600300000B270
:1030100000280AD0300000B20421C943884204D0FD
:10302000310009B2A84800F083F900220A212800E3
:1030300004F095F869460880174C220041320721B8
:10304000280004F08CF80700380000B2002804D0F3
:10305000390009B29D4800F06BF922003132062197
:10306000280004F07CF80400200000B2002804D0FE
:10307000210009B2964800F05BF90020F2BD000083
:103080000801010880B5FFF787F9924800F050F970
:1030900001BD0000A8090108B4160020181C00207A
:1030A0002CEC00081027000048E9000888130000F5
:1030B000401C0020C4040108E4FD0008FEB5002403
:1030C00000250020C0436946888004F021F900F003
:1030D0009DF8FFF761F904F02BF904F0DFF904F033
:1030E00017FB04F0FFFB01F07DFEFFF76FFC7A4851
:1030F00000900023022200210020FFF705FC774802
:1031000000F016F9012000900023012200217448EC
:1031100000F00EF97349744800F00AF91B21734856
:1031200000F006F97249734800F002F9FFF7AAFFB0
:10313000714800688047FFF76BFC704807C8FCF7D0
:10314000F5FF04F02BFCFFF707FE6D4F380000F091
:10315000EFF8280080B2642806DA04F060FC6D1CE9
:103160006420FFF774F9F4E7FFF746FFFFF7F4FD7B
:103170000021012001F068F8624E300004F0BCF834
:10318000012000F071FB032806D05F4800F0D0F862
:103190000021012001F058F8300004F0ADF85B493F
:1031A0000620FFF7A2FCFFF70DFC2000584900F0B5
:1031B000F0FA002907D100200400564800F0B8F8C2
:1031C000380000F0B5F8641CFFF70CFEFFF7FAFBBF
:1031D000FFF732FEFFF794FEFFF7B6FC04F01FFC8A
:1031E000FFF7F0FB05F01FFA05F091FADBE70000AE
:1031F000F7FF0000FDFF0000E40401080CFE0008DA
:10320000FBFF000060EC000894EC000838B59AB0B1
:1032100080242401404D4148016829402143016038
:1032200005F0BCFA3E4801680D402C4304600620BE
:103230000D90802040000F900124109410201190D8
:10324000002516950DA805F0D5FA002803D03549BC
:103250003548FFF708F90F20009001948020029074
:10326000039504950021684605F06EFD002803D003
:103270002E492D48FFF7F7F884200590C020000163
:103280000990C02000030C9005A805F017FF002846
:1032900004D0AE2189002448FFF7E5F805F08BFE45
:1032A000FA21890000F075FA01F070FD042001F0A8
:1032B00073FD002200210020C04301F04FFD1BB030
:1032C00030BD0000881B0020C8EC000820F4000876
:1032D00050F400084C0B0108B80B0000600B01080B
:1032E000040501081C0E0108740B0108C00901083F
:1032F000280E0108D80901082C070108C41600206F
:103300003CE30008102700002C010108FF0F00001B
:10331000400D0300880B0108FFE7FFFF007000402D
:1033200050100240A102000034FE0008AF0200006D
:103330000EB4C0B5020003A801900020009001ABBC
:103340000121044878440C3002F070FE029906B066
:10335000084700BFA5D70000C3788278417800787D
:103360001B021A4309021204084310437047026803
:10337000531C03601170704770B4103A03D378C9BE
:10338000103A78C0FBD2530701D318C918C001D531
:1033900008C908C0D20704D30B880380891C801C8D
:1033A000002A01D50B78037070BC70478B0701D1E0
:1033B0008307E1D0124205D00B78491C0370401CF2
:1033C000521EF9D170470D0A431C0178401C094276
:1033D000FBD1C01A7047FEE771B58B0709D0521EAA
:1033E00028D30B780370401C1B421FD0491C8B074D
:1033F000F5D1121F3ED3274CE50140C9331BB3431F
:103400002B4209D1830716D140C0121F32D340C9C5
:10341000331BB3432B42F7D0121DFF231E4205D0AE
:103420000670401C360A521E1E42F9D111000022BD
:10343000FEF7FCFE71BDDB4216D0401E4670360A18
:103440004680360C0671001D121F06D340C9331B7F
:10345000B3432B42F2D0401CDEE7401C0AE040C9D7
:10346000331BB3432B42D7D10680360C4680001D58
:10347000121FF4D2121D0BD00B780370521E07D00E
:10348000401C491C1B42F7D10370401C521EFBD14B
:1034900071BD00000101010174B50200002000238C
:1034A0006C462478651E6E463570E4B2002C34D02C
:1034B0000400641C1D00EDB255572D112D072D0F72
:1034C0000A2D07DB1D00EDB255572D112D072D0FCD
:1034D000373506E01D00EDB255572D112D072D0F84
:1034E0003035C0B20D542000401C1D00EDB2555DBA
:1034F0002D072D0F0A2D06DB1D00EDB2555D2D07A2
:103500002D0F373505E01D00EDB2555D2D072D0F50
:103510003035E4B20D555B1CC2E7C0B272BD74B564
:103520000200002000236C462488651E6E4635800C
:10353000A4B2002C2BD004002000401C1D00ADB212
:10354000555D412D04DB1D00ADB2555D373D03E0F7
:103550001D00ADB2555D303D1E00B6B296197678AD
:10356000412E05DB1E00B6B296197678373E04E090
:103570001E00B6B296197678303EEDB22D01F6B245
:103580003607360FAD19A4B20D559B1CCBE7C0B260
:1035900072BDFFB587B000270025002602A81021C4
:1035A000FEF74EFE0899079800F0B6F80400002CCC
:1035B00005D15248FFF7BCFE0020C0433FE0089809
:1035C000FFF702FF0999201800F0A6F80500002D6A
:1035D00005D14B48FFF7ACFE0020C0432FE0684602
:1035E000291B6B4628229A56891A01706846007872
:1035F000002807D1684601784248FFF799FE00206D
:10360000C0431CE068460078112808D310226846A1
:1036100001783D48FFF78CFE0020C0430FE068466C
:1036200006786946282008562018019002AF32001B
:1036300001993800FFF7BAFE02A806F029F80BB08E
:10364000F0BDFBB584B01600002700240025310032
:10365000049800F061F800900098002805D12B48EC
:10366000FFF766FE0020C04345E03000FFF7ACFEE8
:103670000699049A101800F04FF80190019800285C
:1036800005D12348FFF754FE0020C04333E00198E2
:103690000099441A3000FFF797FE241A2000C0B2A8
:1036A000002807D12100C9B21648FFF741FE0020CB
:1036B000C04320E06846008E2100C9B289B288422A
:1036C00009D26846028E2100C9B21248FFF730FEC7
:1036D0000020C0430FE03000FFF776FE2500EDB27A
:1036E000009908180290059F2A0002993800FFF7F8
:1036F0005DFEE4B2200007B0F0BD0000F80501084F
:103700001406010830060108F0E900084403010826
:103710004C06010824EA000870B50D78002D11D17F
:1037200070BD491C0E78964207D0401C290005F058
:10373000B7FF002808D0010023005B1C1A78002A7C
:10374000EFD170BD0C00F1E770BDFEE78446087054
:10375000000A4870000A8870000AC8706046704706
:10376000F446002804D4494200F013F84042604770
:103770004042002905D45FD000F00BF84042494296
:103780006047494200F005F84942604703460B4351
:10379000E6D40022030A8B420BD203098B4219D2D2
:1037A00043088B422ED2411A00D2014652411046A4
:1037B0007047FF2209023FD012068B4205D3121236
:1037C00009028B4201D31212090203098B4219D359
:1037D00000E0090AC3098B4201D3CB01C01A524150
:1037E00083098B4201D38B01C01A524143098B429A
:1037F00001D34B01C01A524103098B4201D30B0183
:10380000C01A5241C3088B4201D3CB00C01A5241A7
:1038100083088B4201D38B00C01A524143088B426C
:1038200001D34B00C01A5241884200D3401A524182
:10383000CFD201461046704708B505F03BFF08BDE2
:1038400000B5BFF34F8F914891490860BFF34F8F88
:1038500000BFFDE710B48F4A0300DBB208246343C6
:10386000D218517010BC70478A49C0B20822504328
:10387000081840787047C0B27047FEB506000025B2
:1038800028000024E44369468C8000962800C0B2DA
:1038900010280BDA009840787E492A00D2B208231B
:1038A0005A43895C884201D06D1CEFE72800C0B202
:1038B000102803D02800C0B2112805DB00984178F9
:1038C0007548FFF735FD29E000984078AA2804D014
:1038D00001212800C0B2FFF7BDFF6E492800C0B229
:1038E0000822504308184068002805D10098417804
:1038F0006A48FFF71DFD11E030002A00D2B208230C
:103900005A438918496888470700380000B2A04226
:1039100004D102212800C0B2FFF79CFFF7BD10B50B
:103920000400200080B2002804D15D48FFF700FDAC
:1039300000200EE05B482100028889B2914207D046
:103940000288210089B25848FFF7F2FC032000E00A
:10395000002010BD10B50400200080B2002804D162
:103960005248FFF7E5FC032013E051482100020014
:1039700089B2914201D100200BE04A4922000B8814
:1039800092B29A4204D0220092B2824200D00C80BD
:10399000002010BD10B504004548210089B28142C5
:1039A0001DD0210089B2002904D04249220092B2E0
:1039B0008A4206DB210089B2B748FFF7B9FC032031
:1039C0000EE0220092B2824209D0200080B28842EA
:1039D00005DA200080B2002801D03248448000205F
:1039E00010BD10B504003248210089B281421DD0BB
:1039F000210089B2002904D02E49220092B28A42C5
:103A000006DB210089B2A548FFF792FC03200EE0F7
:103A1000220092B2824209D0200080B2884205DAA8
:103A2000200080B2002801D01E488480002010BDF4
:103A300010B504001E48210089B2814210D0210037
:103A400089B2002906D1210089B29548FFF770FCA0
:103A5000032006E0210089B2814201D0D2480482CD
:103A6000002010BD10B504000020C04384420BD0DC
:103A7000002C05D121008B48FFF75AFC032004E0FD
:103A8000844201D0C8484461002010BD0400FA05FA
:103A90000CED00E0B803002094E60008B8E9000847
:103AA000ACFE0008B41600200CE10008700201080A
:103AB000FFFF0000A1050000F1B58EB001206946AE
:103AC00008700020C0436946C8810E9804901E20EB
:103AD000694608736846007B0838694648731C27A6
:103AE00006970025059507AC059A06992000FEF774
:103AF00097FB0297AC4E019607AC029A0199200001
:103B0000FFF754FC6846017B0E9800F08BFC049A8A
:103B1000917FD37F1B061B0C194389B280B281426F
:103B200001D002249CE004998879CA791206120C0B
:103B300010436946497B89B280B281420BD003248D
:103B400004988179C2791206120C114389B2974800
:103B5000FFF7EEFB84E00499087A4A7A1206120C09
:103B6000104380B2FFF7F6FE04002000C0B2002828
:103B700003D08F48FFF7DCFB72E00499887ACA7A99
:103B80001206120C104380B2FFF704FF040020005D
:103B9000C0B2002803D08748FFF7CAFB60E0049951
:103BA000087B4A7B1206120C104380B2FFF719FF04
:103BB00004002000C0B2002803D07F48FFF7B8FB04
:103BC0004EE00499887CCA7C1206120C104380B225
:103BD000FFF72EFF04002000C0B2002803D0C34826
:103BE000FFF7A6FB3CE004980E30FFF7B5FBFFF7AC
:103BF00039FF04002000C0B2002803D0BC48FFF702
:103C000097FB2DE004984019007D01A948556D1CD3
:103C1000082DF7D301A803C805F04EFD04002000CD
:103C2000C0B2002805D02100C9B2B248FFF780FB1E
:103C300016E0310084B068461C22FFF79DFB0FBCE4
:103C4000FEF760FC6946C88103980014002807D07D
:103C500003990914A848FFF76BFB039800140400AC
:103C60002000C0B2002805D007AD3A00290030007E
:103C7000FFF79CFB0498027941790906090C0A4375
:103C800092B22100C9B2032000F08AFAE4B2200007
:103C900080B20FB0F0BD00007CE30008D0E6000861
:103CA000D0F50008CCED0008F8B507009348694648
:103CB00048803E0008242000083869460870904873
:103CC0000188491C01802100C9B2380000F0AAFB1C
:103CD000317A727A1206120C114389B280B2814293
:103CE0000ED08848FFF724FB327970790006000C6B
:103CF000024392B20221042000F052FA022051E065
:103D0000B079F1790906090C08436946097889B246
:103D100080B2814214D0B179F0790006000C0143E1
:103D200089B2BC48FFF704FB327970790006000CB9
:103D3000024392B20321042000F032FA032031E062
:103D4000B078F1780906090C084380B2FFF7E7FD67
:103D50000500280080B200280FD032797079000663
:103D6000000C024392B20321042000F019FAAA4881
:103D7000FFF7DEFA280080B214E03279707900068D
:103D8000000C024392B22900C9B2042000F008FAE4
:103D9000A248FFF7CDFAA248FEF759FBFFF750FD06
:103DA000280080B2F2BD0000B416002000EE00082A
:103DB00044FA000800F6000830F60008F8B50700DD
:103DC0004E48694648803D0009242000083869466D
:103DD00008704B480188491C01802100C9B2380095
:103DE00000F020FB697AAA7A1206120C114389B2FC
:103DF00080B281420ED0C548FFF79AFA2A796879D5
:103E00000006000C024392B20221042000F0C8F91F
:103E1000022069E0A879E9790906090C0843694696
:103E2000097889B280B2814214D0A979E879000674
:103E3000000C014389B2B648FFF77AFA2A7968790B
:103E40000006000C024392B20321042000F0A8F9FE
:103E5000032049E0A878E9780906090C084380B2F4
:103E6000FFF75DFD0600300080B200280FD02A79F0
:103E700068790006000C024392B20321042000F08E
:103E80008FF9C548FFF754FA300080B22CE0287A49
:103E9000002804D10120C1494969884717E0287AE0
:103EA000012804D10020BD49496988470FE02A79DB
:103EB00068790006000C024392B20321042000F04E
:103EC0006FF9297AD948FFF733FA03200CE02A79F1
:103ED00068790006000C024392B23100C9B2042096
:103EE00000F05EF9300080B2F2BD000070FA000808
:103EF000D4FE00080CE7000834EE0008FFFF0000C5
:103F00004417002094020108F1B582B0C84E029C0B
:103F1000082569462800083808702900C9B20298A7
:103F200000F080FA217A627A1206120C114389B2EB
:103F300080B281420ED0227960790006000C0243E3
:103F400092B20221092000F02BF9BA48FFF7F0F9EC
:103F500002205DE0A079E1790906090C0843694671
:103F6000097889B280B2814214D0A179E079000643
:103F7000000C014389B2B048FFF7DAF92279607981
:103F80000006000C024392B20321092000F008F958
:103F900003203DE0A078E1780906090C084380B2CF
:103FA000FFF7BDFC0700380080B200280FD0A348FF
:103FB000FFF7BEF9227960790006000C024392B245
:103FC0000321092000F0ECF8380080B220E0FEF771
:103FD00084FB0600300080B2002804D0310089B292
:103FE0009748FFF7A5F9227960790006000C024393
:103FF00092B23100C9B2092000F0D2F89148FFF71F
:1040000097F90748FEF723FAFFF71AFC300080B251
:10401000FEBD000068EE0008FCFE000824FF00085A
:10402000B80B0000F8B507000020C043694648807F
:104030003E00082469462000083808702100C9B2F3
:10404000380000F0EFF9317A727A1206120C11433F
:1040500089B280B2814210D00225C548FFF768F9C5
:10406000327970790006000C024392B202210720D7
:1040700000F096F8280080B246E0B079F1790906A0
:10408000090C08436946097889B280B2814214D08C
:10409000B179F0790006000C014389B2B548FFF709
:1040A00047F9327970790006000C024392B203217D
:1040B000072000F075F8032026E0B078F1780906B3
:1040C000090C084380B2FFF72AFC0500280000B263
:1040D00000280FD0D248FFF72BF93279707900060B
:1040E000000C024392B20321072000F059F8280087
:1040F00080B209E0317970790006000C014389B281
:10410000072000F0A1F880B2F2BD0000B80201085B
:104110009CEE0008FEB504000020694608710A25DF
:104120002E00083E00942900C9B2200000F07AF960
:10413000009A917AD37A1B061B0C194389B280B27C
:10414000814204D0CA48FFF7F3F8022022E0009928
:104150008879CA791206120C10433100C9B289B2AB
:1041600080B281420BD000988179C2791206120C7C
:10417000114389B2BF48FFF7DBF803200AE000983B
:10418000407AFFF778FB070003213800C0B2FFF741
:1041900061FB0020FEBD00004CFF00082C07010859
:1041A000F6B585B006001020694608700020C043AF
:1041B000694648800C200190002702AC3A00019922
:1041C0002000FEF72DF802AD6846008BA880300075
:1041D000C0B2FFF750FB040001202870A6480088F9
:1041E0006880AA2068700220E8806846007D2872F6
:1041F0006E720A2102A800F015F968810C2102A84C
:10420000FEF7AEFA0500280000B2002804D0022113
:104210002000C0B2FFF71EFB03212000C0B2FFF751
:1042200019FB280080B207B0F0BD0000A4E100082F
:10423000FFFF000060F60008BCE3000890F60008ED
:10424000C0F6000848E70008F3B595B00600002462
:10425000E4433000C0B2FFF70EFB69460870482007
:1042600002900027019703AD019A02992800FDF7FB
:10427000D7FF012003AD010029707F490A886A80B9
:104280003200D2B2012A07D10A008E321388AB80E5
:1042900013885B1C138002E016AA1288AA80020011
:1042A0006A703E22EA80CA6905921B222A73302274
:1042B0008A5C6A730200AA733A00EA7328746F7406
:1042C0004888A8828888E88228001A3005F066FAB3
:1042D000462103A800F0A6F8462168523000C0B27B
:1042E000012819D16548FFF723F8012168460078B5
:1042F000C0B2FFF7AFFA482103A8FEF779FA04002D
:10430000200000B200282FD0210009B25C48FFF73E
:104310000FF8200080B229E03000C0B2072823D176
:104320005848FFF705F801210120FFF793FA4821CB
:1043300003A8FEF715FA0400200000B200280DD0F3
:10434000210009B24E48FEF7F3FF022168460078CB
:10435000C0B2FFF77FFA200080B207E00321684671
:104360000078C0B2FFF776FA200080B217B0F0BD37
:10437000F0F60008FCE30008F0B58BB00020C04365
:10438000694648801020694608700220FFF773FADA
:1043900007002826002401AD220031002800FDF787
:1043A0003FFF01AD0120287002206870324801886B
:1043B000698001008E310A88AA800A88521C0A800E
:1043C0001E21E980C16903918021415AA9818D2173
:1043D000415CA9738421405805902800143005F0F1
:1043E00004FA262101A800F01DF8E8840121380014
:1043F000C0B2FFF72FFA282101A8FEF7F9F905004E
:10440000280000B2002807D0290009B21E48FEF794
:104410008FFF280000B201E0280000B20BB0F0BD11
:1044200020F7000870B5020000252B002C0017486B
:10443000002901D1280019E0491E2B00994215D30B
:10444000D65C70402E0034002600B6B2082E0BDA7F
:10445000C60705D50600B6B276080D48704001E0E3
:1044600080B24008641CEFE75B1CE7E780B270BDD8
:10447000DC020108D0EE0008B4160020140C01087C
:1044800004EF0008C80A010850F70008FFFF000009
:1044900001A00000F8B50022002300240D68D540DB
:1044A000002D00D1EDE00D68012696402E4033002E
:1044B000002B00D1E3E04D68022D02D04D68122D93
:1044C0001ED1D5080426754345192E6A0F27BC4610
:1044D00015006D076D0F04277D436746AF40BE434F
:1044E0000D69AC4615006F077F0F04256F436546C5
:1044F000BD4035432C00D5080426754345192C6270
:104500004D68012D08D04D68022D05D04D68112D44
:1045100002D04D68122D1FD187680325AC461600C6
:1045200002256E436546B540AF43CD68AC461600E4
:1045300002256E436546B5403D43856047680126C8
:104540009640B743BC464F683E00F606F60F9640CD
:1045500067463E433400446007680325AC461600B6
:1045600002256E436546B540AF430D79AD07AD0FEB
:10457000AC46160002256E436546B5403D430560D6
:10458000C76800970326B44617000226774366469D
:10459000BE40009FB74300978E68B44617000226BE
:1045A00077436646BE40009F3E433400C4604E6879
:1045B000F60064D58A4D2D6801262E43884D2E6065
:1045C000884D960804277E43AE590F27BC46150038
:1045D000AD07AD0F04277D436746AF40BE43A0251E
:1045E000ED05A84201D1002419E08F4CA04201D171
:1045F000012414E08D4CA04201D102240FE08C4C28
:10460000A04201D103240AE08A4CA04201D1042433
:1046100005E0894CA04201D1052400E006241500E4
:10462000AD07AD0F04277D43AC4034436D4D960874
:1046300004277E43AC51814D2D689D434E68F6039F
:1046400000D51D437D4C25607D4C24689C434E68FD
:10465000B60300D51C437A4D2C607A4D2D689D43DE
:104660004E68F60200D51D43764C2560764C2468D2
:104670009C434E68B60200D51C43734D2C60521CFF
:104680000CE7F1BDF8B50022002300240D00D54051
:10469000002D00D1A2E0012595400D402B00002BFC
:1046A00000D199E006680327BC46150002277D4328
:1046B0006746AF4037430760D50804267543451960
:1046C0000095D5080426754345192F6A0F25AC4679
:1046D00015006E07760F04256E436546B540AF435F
:1046E000009D2F6286680327BC46150002277D4384
:1046F0006746AF40BE438660456801269640B54395
:104700004560C6680327BC46150002277D436746FF
:10471000AF40BE43C660334D960804277E43AE5972
:104720000F27BC461500AD07AD0F04277D43674634
:10473000AF4037403C00A025ED05A84201D100253F
:1047400019E0394DA84201D1012514E0374DA842A6
:1047500001D102250FE0364DA84201D103250AE020
:10476000344DA84201D1042505E0334DA84201D1C2
:10477000052500E006251600B607B60F04277E4380
:10478000B540AC4228D10F251600B607B60F042756
:104790007E43B5402C00134D960804277E43AE5946
:1047A000A643104FBC46950804277D4367467E51BB
:1047B000224D2D689D43214E3560214D2D689D432E
:1047C0001F4E35601F4D2D689D431E4E35601E4D9A
:1047D0002D689D431C4E3560521C57E7F1BD00000B
:1047E000341002400800014000B5020010690B00BF
:1047F0009BB21840002801D0012000E00020C0B288
:1048000000BD00B51300DBB2002B03D00B009BB240
:10481000836102E00B009BB2836200BD42690B0022
:104820009BB25A404261704700040050000800509B
:10483000000C005000100050001C0050000401400B
:1048400004040140080401400C04014010B50400B8
:10485000002C01D1012014E03520205C002805D176
:104860000020342160542000FDF758FB0220352140
:104870006054211D206800F04BF90120352160545F
:10488000002010BD01000868C068012202430868CA
:10489000C2600868006801220243086802600020C4
:1048A000704710B504002068006980071BD5206898
:1048B000C068800717D50220C04321680861012025
:1048C0002075206880698007800F002803D02000B1
:1048D00004F0B8FF05E0200004F0B5FF200004F06C
:1048E000B3FF002020752068006940071CD52068B0
:1048F000C068400718D50420C04321680861022021
:10490000207520688069C02189000140002903D0FA
:10491000200004F097FF05E0200004F094FF200041
:1049200004F092FF002020752068006900071BD565
:104930002068C068000717D50820C04321680861B7
:10494000042020752068C0698007800F002803D0EC
:10495000200004F077FF05E0200004F074FF200041
:1049600004F072FF0020207520680069C0061CD585
:104970002068C068C00618D51020C04321680861AF
:10498000082020752068C069C021890001400029E5
:1049900003D0200004F056FF05E0200004F053FF90
:1049A000200004F051FF0020207520680069C00736
:1049B0000AD52068C068C00706D50120C043216819
:1049C00008612000FDF7B4FB2068006940060AD5A5
:1049D0002068C068400606D54020C04321680861B1
:1049E000200004F032FF10BD70B504000D0000215E
:1049F0003420205C012801D1022085E001203422EE
:104A0000A05402203522A054206880687722904369
:104A10003E4E0640206886602868002859D010283D
:104A20005CD020285FD0302862D0402847D0502862
:104A300031D0602839D070280FD0802252019042A6
:104A400004D080229201904217D056E020688068FE
:104A500007218843216888604FE0EB686A68A9688D
:104A6000206800F0CCF8206880687721884377219F
:104A700001430E00206886603FE0EB686A68A96821
:104A8000206800F0BCF8206880688021C9010143DB
:104A90002068816031E0EA686968206800F072F897
:104AA0005021206800F09EF827E0EA6869682068D5
:104AB00000F07CF86021206800F094F81DE0EA68BE
:104AC0006968206800F05EF84021206800F08AF8EC
:104AD00013E00021206800F085F80EE01021206826
:104AE00000F080F809E02021206800F07BF804E065
:104AF0003021206800F076F8FFE70120352160546E
:104B0000002034216054002070BD0000FF00FFFF32
:104B100010B5002302688024E405A04208D02E4B83
:104B2000984205D02D4B984202D02D4B984201D18E
:104B3000012300E00023DBB2002B04D070239A4352
:104B400013004A681A438023DB05984208D0224BA1
:104B5000984205D0214B984202D0214B984201D176
:104B6000012300E00023DBB2002B03D02A4B1340CB
:104B7000CA681A4302608B68C3620B6883620123B0
:104B8000436110BDF0B400230024056A066A0127C2
:104B9000BE4306628669F027BE43170137430A26E3
:104BA000B5430D4387610562F0BC7047F0B4002344
:104BB0000024056A1026B54305628769066A174D09
:104BC0003D4017032F43A025AE430D0135438761B8
:104BD0000562F0BC7047000000040040000801407E
:104BE0000014014030B4002283687024A3430D00F8
:104BF000ADB207242C431C43846030BC7047F0B432
:104C000000248668064D354017000F431E023E43C0
:104C10002E438660F0BC7047FFFCFFFFFF0FFFFFD5
:104C2000FF00FFFF00B502003420105C012801D115
:104C3000022024E001203423D05402203523D05414
:104C40001068406870239843136858601068406883
:104C50000B680343106843601068806880239843A2
:104C600013689860106880684B680343106883601D
:104C700001203523D05400203423D054002000BD1F
:104C80000121C206D20E91404E4A116070470121A7
:104C9000C206D20E91404C4A11607047F0B5020036
:104CA00052B2002A23D5494A03005BB21B071B0FEF
:104CB000083B9D0804235D43444B040064B2240771
:104CC000240F083CA408042674431B59FF248607BC
:104CD000B60F08277E43B440A3438C01E4B2860795
:104CE000B60F08277E43B4401C4354511CE0384A99
:104CF00003005BB29B0804246343D258FF2384075C
:104D0000A40F08256C43A3409A438B01DBB28407B0
:104D1000A40F08256C43A34013432D4A040064B23A
:104D2000A40804256C431351F0BD10B50400601EA7
:104D300080214904884201D301200EE0601E2549EC
:104D4000086003210020C043FFF7A8FF002022498C
:104D50000860072021490860002010BD70B50500DB
:104D60000C0016002100280040B2FFF797FF70BD2D
:104D700010B50400200040B2FFF782FF10BD10B54F
:104D80000400200040B2FFF782FF10BD10B5040000
:104D90002000FFF7CAFF10BD00B5042806D10F4957
:104DA000096804220A430D490A6005E00B490968B5
:104DB00004229143094A116000BD80B500F010F84B
:104DC00001BD000000E100E080E100E01CED00E03A
:104DD00000E400E014E000E018E000E010E000E093
:104DE0007047FEE780B50323B84A0C21B848FDF7A9
:104DF0007FFAFDF740F801BD78B585B08020C0008E
:104E000000900124019400250395BE4E69463000B0
:104E1000FFF740FB002000F07DF8802000010090AB
:104E20000194039569463000FFF734FB012000F040
:104E300071F8002006B070BD38B505000C00002DDB
:104E400002D10320C04307E0002C02D10320C0435D
:104E500002E0FFF7D1FF002032BD00B50200002ABA
:104E600002D10320C04305E0002902D10320C04342
:104E700000E0002000BDF8B504000F0015001E0082
:104E8000002C03D0002F01D0002E02D10320C043FC
:104E90000AE0002D04D1300000F072F800B203E007
:104EA0009948FEF745FA0020F2BD10B50400200035
:104EB000C0B200F02FF8954801212200D2B20D2394
:104EC0005A43821851702100C9B20D225143401833
:104ED000010008310020FEF739FC10BD10B50400B8
:104EE0002000C0B2042814DA2000C0B2002802D08A
:104EF000012807D00DE000228021C9008148FFF77A
:104F000080FC06E00022802109017E48FFF779FC41
:104F1000FFE710BD10B504002000C0B2042814DA69
:104F20002000C0B2002802D0012807D00DE00122E5
:104F30008021C9007348FFF764FC06E0012280214C
:104F400009017048FFF75DFCFFE710BD10B50400D4
:104F50002000C0B2042812DA2000C0B2002802D01B
:104F6000012806D00BE08021C9006648FFF756FCF7
:104F700005E0802109016348FFF750FCFFE710BD01
:104F800030B50400002C02D02078042802DB032076
:104F9000C0431DE05D4D20780D21484328186178FD
:104FA000417020780D2148432818A178817020781D
:104FB0000D2148432818E178C170201DFEF7CCF977
:104FC00021780D2251436918091DFEF7BFFB00200F
:104FD00030BD70B505004D4C2800C0B20D214843CE
:104FE00020188078002803D002280BD005D336E0A3
:104FF0002800C0B2FFF772FF36E02800C0B2FFF70A
:1050000054FF61E02800C0B20D2148432018083049
:10501000FEF7A2F93E492A00D2B20D235A43A21844
:10502000D27802235A43895AFEF7B3FB002915D1DF
:105030002800C0B2FFF78AFF2800C0B20D21484304
:1050400020184078022809D12800C0B20D21484319
:105050002018010008310020FEF778FB04E028004A
:10506000C0B2FFF722FF2FE02800C0B20D21484355
:1050700020180830FEF770F92900C9B20D225143FB
:1050800061180831401CFEF761FB2800C0B20D21F9
:10509000484320184078002816D12800C0B20D21BE
:1050A000484320180830FEF757F906002800C0B220
:1050B0000D2148432018001DFEF74EF9B04203D2DF
:1050C0002800C0B2FFF7F1FE70BD000070010020A3
:1050D000101B002010B5002420002000C0B20328BF
:1050E0000EDA0A482100C9B20D2251434018407817
:1050F000012805D02000C0B2FFF76BFF641CECE76D
:1051000010BD000000080050380B01088801002085
:105110004810010880B5FFF7DDFF01BD01680222DC
:105120000A43026070478268B94B13400B438360A7
:10513000704781688022D2030A438260704780B53D
:105140008C48B449086096208001B249486000202C
:10515000B04988600020AF49C8600020AD490861AF
:105160000C20AC4948610020AA4988610020A94967
:1051700008620020A7494862A64800F0B1F900285B
:1051800003D04B217C48FDF76EF9A2480068006807
:10519000202101439F480068016001BD80B59E4801
:1051A000C049086096208001BE4948600020BD4982
:1051B00088600020BB49C8600020BA4908610C2003
:1051C000B84948610020B74988610020B549C861E5
:1051D0000020B44908622020B24948628020800142
:1051E000B049C863AF4800F07BF9002803D07A21AA
:1051F0006148FDF738F9AB48006800682021014399
:10520000A8480068016001BD18B585B00400206899
:105210005849884229D1A44800688021C902014325
:10522000A1480160C02000010090022001900020F0
:105230000290032003900420049069469B48FFF7E6
:1052400029F9C02189034B48FFF76DFF4948FFF753
:1052500070FF4848FFF762FF002200211D20FFF782
:105260007DFD1D20FFF784FD45E02068434988420D
:105270001ED18D4800688021890201438A4801605F
:105280000C20009002200190012002900320039046
:10529000042004906946A020C005FFF7FBF8002217
:1052A00000211C20FFF75AFD1C20FFF761FD22E0C2
:1052B0002068594988421ED17D4800688021C90173
:1052C00001437B480160C020C00000900220019093
:1052D0000020029003200390042004906946A0203F
:1052E000C005FFF7D7F8002200211B20FFF736FD8D
:1052F0001B20FFF73DFD06B010BD10B5040020686F
:105300001C4988420ED1684800686A4901406648D5
:105310000160C02109016548FFF7B4F91D20FFF7BE
:105320002EFD25E02068154988420ED15E480068B0
:10533000614901405C4801600C21A020C005FFF7D5
:10534000A1F91C20FFF71BFD12E0206832498842BA
:105350000ED1574800685949014055480160C021A5
:10536000C900A020C005FFF78DF91B20FFF707FD3E
:1053700010BD0000004800406CEF000800440040F1
:1053800080B54F480068800635D54E480068FA2140
:10539000490088422BD243480068406A4A49494A3A
:1053A0001268885447480068401C464908604748CE
:1053B0000068C0680121884344490968C8604348BF
:1053C0000068006A42490140002907D13F4800684F
:1053D0000068012188433D49096808600120C043F5
:1053E0003A49096808613948FFF74CFAC9E70020D3
:1053F00034490860C5E732480068000703D5082033
:1054000028490968086200203249086001BD00008F
:10541000FFFFCFFFD81700200038014070B52B48A0
:1054200000680069C0073BD528480068C068C0070D
:1054300036D526480068006A25490140002907D171
:1054400022480068006801218843204909680860F3
:105450001E480068C068012188431C490968C8606B
:105460001D480068002804D0164917481A4A1268D7
:105470009047FA2464000025134E2A0021003000D2
:10548000FCF7CEFE00200F4908600120C0430F4901
:105490000968086111480068022101430F48016052
:1054A00070BD000048180020381002400004005071
:1054B00034100240FFFFFBFFFFFFFDFFFFBFFFFFB8
:1054C0001C380140281C0020C0120020081A0020AF
:1054D00011110000241401402C1C00201004014074
:1054E00010B50400002C01D1012037E0A06900288C
:1054F000FFD16920205C002805D10020682160547C
:105500002000FFF781FE2420692160542068006894
:105510000121884321680860606A002802D02000C9
:1055200000F0C2FB200000F0DBF9012801D10120CE
:1055300014E0206840680A49014020684160206802
:1055400080682A21884321688860206800680121DA
:10555000014320680160200000F018FC10BD00002D
:10556000FFB7FFFF10B50400002C01D1012020E09F
:105570002420692160542068006801218843216843
:105580000860002021680860002021684860002031
:10559000216888602000FFF7B0FE0020E066002050
:1055A0006921605400206A21605400206821605401
:1055B000002010BDFEB582B005000C000026692059
:1055C000285C20286CD1002C03D0684680890028F4
:1055D00001D1012065E0A86880214901884207D1F6
:1055E0002869002804D12000C00701D5012058E017
:1055F0006820285C012801D1022052E001206821A6
:1056000068540020E86621206921685404F01EF9DE
:105610000700684680895021685268468089522177
:1056200068525220285A002826D05220285A401E5C
:1056300052216852049800903B00002280212800EB
:1056400000F0DEFB002801D003202AE0A8688021BA
:10565000490188420BD12869002808D1019401989A
:105660000088C005C00D29688862A41CD9E720788D
:1056700029688862641CD4E7049800903B000022EB
:105680004021280000F0BCFB002801D0032008E0E6
:10569000202069216854002068216854002000E01F
:1056A000022005B0F0BD10B503006A20185C202868
:1056B00066D1002903D0100080B2002801D101205A
:1056C0005FE0986880246401A04207D1186900282F
:1056D00004D10800C00701D5012052E06820185C01
:1056E000012801D102204CE0012068241855596599
:1056F00058201A525A201A52986880246401A042F5
:105700000AD11869002803D11E485C24185320E0F0
:10571000FF205C2418531CE0986800280AD11869FF
:10572000002803D1FF205C24185312E07F205C2462
:1057300018530EE0986880246405A04209D11869C6
:10574000002803D17F205C24185302E03F205C2412
:1057500018530020D86622206A2418550020682497
:105760001855186880680124044318688460186814
:10577000006890246400044318680460002000E07E
:10578000022010BDFF010000F8B504002068C569C3
:10579000206806682807000F00900098002807D1AD
:1057A000A80605D5B00603D5200000F0CEFB94E096
:1057B00020688768009800286DD0F80704D49020EE
:1057C00040003040002866D0E80708D5F00506D52F
:1057D000012021680862E06E01210143E166A8070B
:1057E00008D5F80706D5022021680862E06E04217A
:1057F0000143E166680708D5F80706D5042021684B
:105800000862E06E02210143E16628070AD5B0066E
:1058100001D4F80706D5082021680862E06E082147
:105820000143E166E06E002834D0A80604D5B00636
:1058300002D5200000F089FBE06E000703D4206849
:105840008068400621D520688068400619D5206808
:1058500080684021884321688860606E00280CD0F1
:105860001E48616E8863606E04F04BFA002811D008
:10587000606E616E896B88470CE0200004F036FC96
:1058800008E0200004F032FC04E0200004F02EFCCC
:105890000020E06621E0E8020FD578020DD58020D7
:1058A00040032168086220206921605420206A2179
:1058B0006054200004F01CFC0FE0280605D53006DB
:1058C00003D5200000F0F7FA07E0680605D570065A
:1058D00003D5200000F029FBFFE7F1BD9D5E000825
:1058E000FEB504000020102600216A4651800027E2
:1058F00000216A4611702168B14A9142FFD0A16827
:1059000022690A4363691343E169194322681268F3
:10591000AC4B13400B432268136022685268AA4BB9
:105920001340E2681A4323685A60A5692268A44BB1
:105930009A4202D02800256A054320688068A3495E
:1059400001402943206881602068A14988421AD11A
:10595000A04800688007800F002805D0022806D0E4
:1059600008D3032809D00BE0012006005FE00220E5
:1059700006005CE00420060059E00820060056E01E
:105980001020060053E02068AD4988421BD19148A1
:1059900000680C210140002906D004290AD00829FA
:1059A00005D00C2909D00BE0002006003FE00220C2
:1059B00006003CE00420060039E00820060036E03E
:1059C0001020060033E02068B349884202D100204D
:1059D00006002CE02068B149884202D10020060070
:1059E00025E020687649884221D17A480068C021A4
:1059F0000901014000290CD08020C00081420ED056
:105A000080200001814207D0C0200001814209D0DE
:105A10000BE0002006000AE00220060007E0042058
:105A2000060004E00820060001E010200600022025
:105A300003F048FC019020686149884259D1002058
:105A400005003000C0B2002806D0022808D0042883
:105A500010D0082812D015E003F0B0FA050014E0C9
:105A60008F480068C00602D58E48050001E0C64890
:105A700005000AE003F04AFA050006E08020000273
:105A8000050002E0012069460870002D00D1FFE00A
:105A9000606803214843854205D36068802149013D
:105AA0004843A84203D2012069460870F0E028006C
:105AB000002180225200002304F01CFB02000B0096
:105AC000606840080021801859416268002304F092
:105AD0002AFB0500C0208000854206D380204003B9
